{
  "_format": "hh-sol-artifact-1",
  "contractName": "Auth",
  "sourceName": "contracts/Token.sol",
  "abi": [
    {
      "inputs": [
        {
          "internalType": "address",
          "name": "_user",
          "type": "address"
        }
      ],
      "name": "login",
      "outputs": [
        {
          "internalType": "bool",
          "name": "",
          "type": "bool"
        }
      ],
      "stateMutability": "view",
      "type": "function"
    },
    {
      "inputs": [],
      "name": "signup",
      "outputs": [],
      "stateMutability": "nonpayable",
      "type": "function"
    },
    {
      "inputs": [
        {
          "internalType": "uint256",
          "name": "",
          "type": "uint256"
        }
      ],
      "name": "users",
      "outputs": [
        {
          "internalType": "address",
          "name": "",
          "type": "address"
        }
      ],
      "stateMutability": "view",
      "type": "function"
    }
  ],
  "bytecode": "0x608060405234801561001057600080fd5b5061058f806100206000396000f3fe608060405234801561001057600080fd5b50600436106100415760003560e01c806335a6861a14610046578063365b98b214610076578063b7bc0f73146100a6575b600080fd5b610060600480360381019061005b9190610346565b6100b0565b60405161006d919061038e565b60405180910390f35b610090600480360381019061008b91906103df565b61015e565b60405161009d919061041b565b60405180910390f35b6100ae61019d565b005b600080600090505b600080549050811015610153578273ffffffffffffffffffffffffffffffffffffffff16600082815481106100f0576100ef610436565b5b9060005260206000200160009054906101000a900473ffffffffffffffffffffffffffffffffffffffff1673ffffffffffffffffffffffffffffffffffffffff1603610140576001915050610159565b808061014b90610494565b9150506100b8565b50600090505b919050565b6000818154811061016e57600080fd5b906000526020600020016000915054906101000a900473ffffffffffffffffffffffffffffffffffffffff1681565b60006001905060005b60008054905081101561023c573373ffffffffffffffffffffffffffffffffffffffff16600082815481106101de576101dd610436565b5b9060005260206000200160009054906101000a900473ffffffffffffffffffffffffffffffffffffffff1673ffffffffffffffffffffffffffffffffffffffff160361022957600091505b808061023490610494565b9150506101a6565b508061027d576040517f08c379a000000000000000000000000000000000000000000000000000000000815260040161027490610539565b60405180910390fd5b6000339080600181540180825580915050600190039060005260206000200160009091909190916101000a81548173ffffffffffffffffffffffffffffffffffffffff021916908373ffffffffffffffffffffffffffffffffffffffff16021790555050565b600080fd5b600073ffffffffffffffffffffffffffffffffffffffff82169050919050565b6000610313826102e8565b9050919050565b61032381610308565b811461032e57600080fd5b50565b6000813590506103408161031a565b92915050565b60006020828403121561035c5761035b6102e3565b5b600061036a84828501610331565b91505092915050565b60008115159050919050565b61038881610373565b82525050565b60006020820190506103a3600083018461037f565b92915050565b6000819050919050565b6103bc816103a9565b81146103c757600080fd5b50565b6000813590506103d9816103b3565b92915050565b6000602082840312156103f5576103f46102e3565b5b6000610403848285016103ca565b91505092915050565b61041581610308565b82525050565b6000602082019050610430600083018461040c565b92915050565b7f4e487b7100000000000000000000000000000000000000000000000000000000600052603260045260246000fd5b7f4e487b7100000000000000000000000000000000000000000000000000000000600052601160045260246000fd5b600061049f826103a9565b91507fffffffffffffffffffffffffffffffffffffffffffffffffffffffffffffffff82036104d1576104d0610465565b5b600182019050919050565b600082825260208201905092915050565b7f5573657220616c72656164792065786973747300000000000000000000000000600082015250565b60006105236013836104dc565b915061052e826104ed565b602082019050919050565b6000602082019050818103600083015261055281610516565b905091905056fea2646970667358221220c183795a037dc33a33e89799270432c53961e8588c269beb8314bb12590abcaa64736f6c63430008130033",
  "linkReferences": {},
  "deployedLinkReferences": {}
}