{
  "_format": "hh-sol-artifact-1",
  "contractName": "LoanPool",
  "sourceName": "contracts/Avax.sol",
  "abi": [
    {
      "inputs": [],
      "stateMutability": "nonpayable",
      "type": "constructor"
    },
    {
      "anonymous": false,
      "inputs": [
        {
          "indexed": true,
          "internalType": "address",
          "name": "borrower",
          "type": "address"
        },
        {
          "indexed": false,
          "internalType": "uint256",
          "name": "amount",
          "type": "uint256"
        },
        {
          "indexed": false,
          "internalType": "address",
          "name": "collateralToken",
          "type": "address"
        },
        {
          "indexed": false,
          "internalType": "uint256",
          "name": "collateralAmount",
          "type": "uint256"
        }
      ],
      "name": "Borrowed",
      "type": "event"
    },
    {
      "anonymous": false,
      "inputs": [
        {
          "indexed": true,
          "internalType": "address",
          "name": "lender",
          "type": "address"
        },
        {
          "indexed": false,
          "internalType": "uint256",
          "name": "amount",
          "type": "uint256"
        }
      ],
      "name": "Deposited",
      "type": "event"
    },
    {
      "anonymous": false,
      "inputs": [
        {
          "indexed": true,
          "internalType": "address",
          "name": "borrower",
          "type": "address"
        },
        {
          "indexed": false,
          "internalType": "address",
          "name": "liquidator",
          "type": "address"
        },
        {
          "indexed": false,
          "internalType": "address",
          "name": "collateralToken",
          "type": "address"
        },
        {
          "indexed": false,
          "internalType": "uint256",
          "name": "collateralAmount",
          "type": "uint256"
        }
      ],
      "name": "Liquidated",
      "type": "event"
    },
    {
      "anonymous": false,
      "inputs": [
        {
          "indexed": true,
          "internalType": "address",
          "name": "borrower",
          "type": "address"
        },
        {
          "indexed": false,
          "internalType": "uint256",
          "name": "amount",
          "type": "uint256"
        }
      ],
      "name": "Repaid",
      "type": "event"
    },
    {
      "inputs": [
        {
          "internalType": "uint256",
          "name": "_amount",
          "type": "uint256"
        },
        {
          "internalType": "address",
          "name": "_collateralToken",
          "type": "address"
        },
        {
          "internalType": "uint256",
          "name": "_collateralAmount",
          "type": "uint256"
        }
      ],
      "name": "borrowFunds",
      "outputs": [],
      "stateMutability": "nonpayable",
      "type": "function"
    },
    {
      "inputs": [],
      "name": "depositFunds",
      "outputs": [],
      "stateMutability": "payable",
      "type": "function"
    },
    {
      "inputs": [
        {
          "internalType": "address",
          "name": "",
          "type": "address"
        }
      ],
      "name": "deposits",
      "outputs": [
        {
          "internalType": "uint256",
          "name": "amount",
          "type": "uint256"
        },
        {
          "internalType": "uint256",
          "name": "depositTime",
          "type": "uint256"
        }
      ],
      "stateMutability": "view",
      "type": "function"
    },
    {
      "inputs": [],
      "name": "interestRate",
      "outputs": [
        {
          "internalType": "uint256",
          "name": "",
          "type": "uint256"
        }
      ],
      "stateMutability": "view",
      "type": "function"
    },
    {
      "inputs": [],
      "name": "lenderRate",
      "outputs": [
        {
          "internalType": "uint256",
          "name": "",
          "type": "uint256"
        }
      ],
      "stateMutability": "view",
      "type": "function"
    },
    {
      "inputs": [
        {
          "internalType": "address",
          "name": "_borrower",
          "type": "address"
        }
      ],
      "name": "liquidateLoan",
      "outputs": [],
      "stateMutability": "nonpayable",
      "type": "function"
    },
    {
      "inputs": [
        {
          "internalType": "address",
          "name": "",
          "type": "address"
        }
      ],
      "name": "loans",
      "outputs": [
        {
          "internalType": "address",
          "name": "borrower",
          "type": "address"
        },
        {
          "internalType": "uint256",
          "name": "amount",
          "type": "uint256"
        },
        {
          "internalType": "uint256",
          "name": "collateralAmount",
          "type": "uint256"
        },
        {
          "internalType": "address",
          "name": "collateralToken",
          "type": "address"
        },
        {
          "internalType": "uint256",
          "name": "interestRate",
          "type": "uint256"
        },
        {
          "internalType": "uint256",
          "name": "borrowTime",
          "type": "uint256"
        },
        {
          "internalType": "uint256",
          "name": "dueDate",
          "type": "uint256"
        },
        {
          "internalType": "bool",
          "name": "repaid",
          "type": "bool"
        }
      ],
      "stateMutability": "view",
      "type": "function"
    },
    {
      "inputs": [],
      "name": "owner",
      "outputs": [
        {
          "internalType": "address",
          "name": "",
          "type": "address"
        }
      ],
      "stateMutability": "view",
      "type": "function"
    },
    {
      "inputs": [],
      "name": "repayLoan",
      "outputs": [],
      "stateMutability": "payable",
      "type": "function"
    },
    {
      "inputs": [],
      "name": "totalDeposits",
      "outputs": [
        {
          "internalType": "uint256",
          "name": "",
          "type": "uint256"
        }
      ],
      "stateMutability": "view",
      "type": "function"
    },
    {
      "inputs": [],
      "name": "withdrawFunds",
      "outputs": [],
      "stateMutability": "nonpayable",
      "type": "function"
    }
  ],
  "bytecode": "0x60806040526005600255600260035534801561001a57600080fd5b5033600560006101000a81548173ffffffffffffffffffffffffffffffffffffffff021916908373ffffffffffffffffffffffffffffffffffffffff160217905550611ee48061006b6000396000f3fe60806040526004361061009c5760003560e01c80637d882097116100645780637d8820971461017b5780638da5cb5b146101a6578063bbdfa00e146101d1578063e2c41dbc146101fa578063f966ade714610204578063fc7e286d1461020e5761009c565b80630f9a0f6e146100a157806324600fc3146100ca5780635c53c355146100e157806373b4086b1461010c5780637c3a00fd14610150575b600080fd5b3480156100ad57600080fd5b506100c860048036038101906100c3919061138d565b61024c565b005b3480156100d657600080fd5b506100df610740565b005b3480156100ed57600080fd5b506100f6610980565b60405161010391906113ef565b60405180910390f35b34801561011857600080fd5b50610133600480360381019061012e919061140a565b610986565b604051610147989796959493929190611461565b60405180910390f35b34801561015c57600080fd5b50610165610a1b565b60405161017291906113ef565b60405180910390f35b34801561018757600080fd5b50610190610a21565b60405161019d91906113ef565b60405180910390f35b3480156101b257600080fd5b506101bb610a27565b6040516101c891906114df565b60405180910390f35b3480156101dd57600080fd5b506101f860048036038101906101f3919061140a565b610a4d565b005b610202610df9565b005b61020c610f98565b005b34801561021a57600080fd5b506102356004803603810190610230919061140a565b6112d0565b6040516102439291906114fa565b60405180910390f35b600060065414610291576040517f08c379a000000000000000000000000000000000000000000000000000000000815260040161028890611580565b60405180910390fd5b60016006819055508260045410156102de576040517f08c379a00000000000000000000000000000000000000000000000000000000081526004016102d5906115ec565b60405180910390fd5b6000600160003373ffffffffffffffffffffffffffffffffffffffff1673ffffffffffffffffffffffffffffffffffffffff1681526020019081526020016000206001015414610363576040517f08c379a000000000000000000000000000000000000000000000000000000000815260040161035a9061167e565b60405180910390fd5b6000829050818173ffffffffffffffffffffffffffffffffffffffff1663dd62ed3e33306040518363ffffffff1660e01b81526004016103a492919061169e565b602060405180830381865afa1580156103c1573d6000803e3d6000fd5b505050506040513d601f19601f820116820180604052508101906103e591906116dc565b1015610426576040517f08c379a000000000000000000000000000000000000000000000000000000000815260040161041d90611755565b60405180910390fd5b8073ffffffffffffffffffffffffffffffffffffffff166323b872dd3330856040518463ffffffff1660e01b815260040161046393929190611775565b6020604051808303816000875af1158015610482573d6000803e3d6000fd5b505050506040513d601f19601f820116820180604052508101906104a691906117d8565b6104e5576040517f08c379a00000000000000000000000000000000000000000000000000000000081526004016104dc90611851565b60405180910390fd5b6040518061010001604052803373ffffffffffffffffffffffffffffffffffffffff1681526020018581526020018381526020018473ffffffffffffffffffffffffffffffffffffffff168152602001600254815260200142815260200162093a804261055291906118a0565b815260200160001515815250600160003373ffffffffffffffffffffffffffffffffffffffff1673ffffffffffffffffffffffffffffffffffffffff16815260200190815260200160002060008201518160000160006101000a81548173ffffffffffffffffffffffffffffffffffffffff021916908373ffffffffffffffffffffffffffffffffffffffff160217905550602082015181600101556040820151816002015560608201518160030160006101000a81548173ffffffffffffffffffffffffffffffffffffffff021916908373ffffffffffffffffffffffffffffffffffffffff1602179055506080820151816004015560a0820151816005015560c0820151816006015560e08201518160070160006101000a81548160ff021916908315150217905550905050836004600082825461069291906118d4565b925050819055503373ffffffffffffffffffffffffffffffffffffffff166108fc859081150290604051600060405180830381858888f193505050501580156106df573d6000803e3d6000fd5b503373ffffffffffffffffffffffffffffffffffffffff167f01c49cf1232849b567d2ab59e1329de06371836816e4da37c284a164a70b5b4b85858560405161072a93929190611908565b60405180910390a2506000600681905550505050565b600060065414610785576040517f08c379a000000000000000000000000000000000000000000000000000000000815260040161077c90611580565b60405180910390fd5b600160068190555060008060003373ffffffffffffffffffffffffffffffffffffffff1673ffffffffffffffffffffffffffffffffffffffff16815260200190815260200160002090506000816000015411610816576040517f08c379a000000000000000000000000000000000000000000000000000000000815260040161080d9061198b565b60405180910390fd5b60006201518082600101544261082c91906118d4565b61083691906119da565b90506000816103e860035485600001546108509190611a0b565b61085a91906119da565b6108649190611a0b565b9050600081846000015461087891906118a0565b9050804710156108bd576040517f08c379a00000000000000000000000000000000000000000000000000000000081526004016108b490611a99565b60405180910390fd5b8360000154600460008282546108d391906118d4565b925050819055506000803373ffffffffffffffffffffffffffffffffffffffff1673ffffffffffffffffffffffffffffffffffffffff168152602001908152602001600020600080820160009055600182016000905550503373ffffffffffffffffffffffffffffffffffffffff166108fc829081150290604051600060405180830381858888f19350505050158015610971573d6000803e3d6000fd5b50505050506000600681905550565b60035481565b60016020528060005260406000206000915090508060000160009054906101000a900473ffffffffffffffffffffffffffffffffffffffff16908060010154908060020154908060030160009054906101000a900473ffffffffffffffffffffffffffffffffffffffff16908060040154908060050154908060060154908060070160009054906101000a900460ff16905088565b60025481565b60045481565b600560009054906101000a900473ffffffffffffffffffffffffffffffffffffffff1681565b600060065414610a92576040517f08c379a0000000000000000000000000000000000000000000000000000000008152600401610a8990611580565b60405180910390fd5b60016006819055506000600160008373ffffffffffffffffffffffffffffffffffffffff1673ffffffffffffffffffffffffffffffffffffffff16815260200190815260200160002090506000816001015411610b24576040517f08c379a0000000000000000000000000000000000000000000000000000000008152600401610b1b90611b05565b60405180910390fd5b80600601544211610b6a576040517f08c379a0000000000000000000000000000000000000000000000000000000008152600401610b6190611b71565b60405180910390fd5b8060070160009054906101000a900460ff1615610bbc576040517f08c379a0000000000000000000000000000000000000000000000000000000008152600401610bb390611bdd565b60405180910390fd5b60008160030160009054906101000a900473ffffffffffffffffffffffffffffffffffffffff1690508073ffffffffffffffffffffffffffffffffffffffff1663a9059cbb3384600201546040518363ffffffff1660e01b8152600401610c24929190611bfd565b6020604051808303816000875af1158015610c43573d6000803e3d6000fd5b505050506040513d601f19601f82011682018060405250810190610c6791906117d8565b610ca6576040517f08c379a0000000000000000000000000000000000000000000000000000000008152600401610c9d90611c72565b60405180910390fd5b8273ffffffffffffffffffffffffffffffffffffffff167fa98cdf85495941fc3fee7f350b000897f77368ee1a39e7ab44323e1ceb4fd2b3338460030160009054906101000a900473ffffffffffffffffffffffffffffffffffffffff168560020154604051610d1893929190611775565b60405180910390a2600160008473ffffffffffffffffffffffffffffffffffffffff1673ffffffffffffffffffffffffffffffffffffffff168152602001908152602001600020600080820160006101000a81549073ffffffffffffffffffffffffffffffffffffffff0219169055600182016000905560028201600090556003820160006101000a81549073ffffffffffffffffffffffffffffffffffffffff02191690556004820160009055600582016000905560068201600090556007820160006101000a81549060ff021916905550505050600060068190555050565b600060065414610e3e576040517f08c379a0000000000000000000000000000000000000000000000000000000008152600401610e3590611580565b60405180910390fd5b600160068190555060003411610e89576040517f08c379a0000000000000000000000000000000000000000000000000000000008152600401610e8090611cde565b60405180910390fd5b3460046000828254610e9b91906118a0565b92505081905550346000803373ffffffffffffffffffffffffffffffffffffffff1673ffffffffffffffffffffffffffffffffffffffff1681526020019081526020016000206000016000828254610ef391906118a0565b92505081905550426000803373ffffffffffffffffffffffffffffffffffffffff1673ffffffffffffffffffffffffffffffffffffffff168152602001908152602001600020600101819055503373ffffffffffffffffffffffffffffffffffffffff167f2da466a7b24304f47e87fa2e1e5a81b9831ce54fec19055ce277ca2f39ba42c434604051610f8691906113ef565b60405180910390a26000600681905550565b600060065414610fdd576040517f08c379a0000000000000000000000000000000000000000000000000000000008152600401610fd490611580565b60405180910390fd5b60016006819055506000600160003373ffffffffffffffffffffffffffffffffffffffff1673ffffffffffffffffffffffffffffffffffffffff1681526020019081526020016000209050600081600101541161106f576040517f08c379a000000000000000000000000000000000000000000000000000000000815260040161106690611d4a565b60405180910390fd5b80600601544211156110b6576040517f08c379a00000000000000000000000000000000000000000000000000000000081526004016110ad90611db6565b60405180910390fd5b6000620151808260050154426110cc91906118d4565b6110d691906119da565b6103e8836004015484600101546110ed9190611a0b565b6110f791906119da565b6111019190611a0b565b826001015461111091906118a0565b905080341015611155576040517f08c379a000000000000000000000000000000000000000000000000000000000815260040161114c90611e22565b60405180910390fd5b806004600082825461116791906118a0565b9250508190555060018260070160006101000a81548160ff02191690831515021790555060008260030160009054906101000a900473ffffffffffffffffffffffffffffffffffffffff1690508073ffffffffffffffffffffffffffffffffffffffff1663a9059cbb3385600201546040518363ffffffff1660e01b81526004016111f3929190611bfd565b6020604051808303816000875af1158015611212573d6000803e3d6000fd5b505050506040513d601f19601f8201168201806040525081019061123691906117d8565b611275576040517f08c379a000000000000000000000000000000000000000000000000000000000815260040161126c90611e8e565b60405180910390fd5b3373ffffffffffffffffffffffffffffffffffffffff167f0516911bcc3a0a7412a44601057c0a0a1ec628bde049a84284bc428866534488346040516112bb91906113ef565b60405180910390a25050506000600681905550565b60006020528060005260406000206000915090508060000154908060010154905082565b600080fd5b6000819050919050565b61130c816112f9565b811461131757600080fd5b50565b60008135905061132981611303565b92915050565b600073ffffffffffffffffffffffffffffffffffffffff82169050919050565b600061135a8261132f565b9050919050565b61136a8161134f565b811461137557600080fd5b50565b60008135905061138781611361565b92915050565b6000806000606084860312156113a6576113a56112f4565b5b60006113b48682870161131a565b93505060206113c586828701611378565b92505060406113d68682870161131a565b9150509250925092565b6113e9816112f9565b82525050565b600060208201905061140460008301846113e0565b92915050565b6000602082840312156114205761141f6112f4565b5b600061142e84828501611378565b91505092915050565b6114408161134f565b82525050565b60008115159050919050565b61145b81611446565b82525050565b600061010082019050611477600083018b611437565b611484602083018a6113e0565b61149160408301896113e0565b61149e6060830188611437565b6114ab60808301876113e0565b6114b860a08301866113e0565b6114c560c08301856113e0565b6114d260e0830184611452565b9998505050505050505050565b60006020820190506114f46000830184611437565b92915050565b600060408201905061150f60008301856113e0565b61151c60208301846113e0565b9392505050565b600082825260208201905092915050565b7f5265656e7472616e742063616c6c000000000000000000000000000000000000600082015250565b600061156a600e83611523565b915061157582611534565b602082019050919050565b600060208201905081810360008301526115998161155d565b9050919050565b7f496e73756666696369656e74206c697175696469747920696e20706f6f6c0000600082015250565b60006115d6601e83611523565b91506115e1826115a0565b602082019050919050565b60006020820190508181036000830152611605816115c9565b9050919050565b7f4578697374696e67206c6f616e206d757374206265207265706169642066697260008201527f7374000000000000000000000000000000000000000000000000000000000000602082015250565b6000611668602283611523565b91506116738261160c565b604082019050919050565b600060208201905081810360008301526116978161165b565b9050919050565b60006040820190506116b36000830185611437565b6116c06020830184611437565b9392505050565b6000815190506116d681611303565b92915050565b6000602082840312156116f2576116f16112f4565b5b6000611700848285016116c7565b91505092915050565b7f436f6c6c61746572616c206e6f7420617070726f766564000000000000000000600082015250565b600061173f601783611523565b915061174a82611709565b602082019050919050565b6000602082019050818103600083015261176e81611732565b9050919050565b600060608201905061178a6000830186611437565b6117976020830185611437565b6117a460408301846113e0565b949350505050565b6117b581611446565b81146117c057600080fd5b50565b6000815190506117d2816117ac565b92915050565b6000602082840312156117ee576117ed6112f4565b5b60006117fc848285016117c3565b91505092915050565b7f436f6c6c61746572616c207472616e73666572206661696c6564000000000000600082015250565b600061183b601a83611523565b915061184682611805565b602082019050919050565b6000602082019050818103600083015261186a8161182e565b9050919050565b7f4e487b7100000000000000000000000000000000000000000000000000000000600052601160045260246000fd5b60006118ab826112f9565b91506118b6836112f9565b92508282019050808211156118ce576118cd611871565b5b92915050565b60006118df826112f9565b91506118ea836112f9565b925082820390508181111561190257611901611871565b5b92915050565b600060608201905061191d60008301866113e0565b61192a6020830185611437565b61193760408301846113e0565b949350505050565b7f4e6f2066756e647320617661696c61626c650000000000000000000000000000600082015250565b6000611975601283611523565b91506119808261193f565b602082019050919050565b600060208201905081810360008301526119a481611968565b9050919050565b7f4e487b7100000000000000000000000000000000000000000000000000000000600052601260045260246000fd5b60006119e5826112f9565b91506119f0836112f9565b925082611a00576119ff6119ab565b5b828204905092915050565b6000611a16826112f9565b9150611a21836112f9565b9250828202611a2f816112f9565b91508282048414831517611a4657611a45611871565b5b5092915050565b7f4e6f7420656e6f756768204156415820696e20706f6f6c000000000000000000600082015250565b6000611a83601783611523565b9150611a8e82611a4d565b602082019050919050565b60006020820190508181036000830152611ab281611a76565b9050919050565b7f4e6f20616374697665206c6f616e000000000000000000000000000000000000600082015250565b6000611aef600e83611523565b9150611afa82611ab9565b602082019050919050565b60006020820190508181036000830152611b1e81611ae2565b9050919050565b7f4c6f616e206973206e6f74206f76657264756520796574000000000000000000600082015250565b6000611b5b601783611523565b9150611b6682611b25565b602082019050919050565b60006020820190508181036000830152611b8a81611b4e565b9050919050565b7f4c6f616e20616c72656164792072657061696400000000000000000000000000600082015250565b6000611bc7601383611523565b9150611bd282611b91565b602082019050919050565b60006020820190508181036000830152611bf681611bba565b9050919050565b6000604082019050611c126000830185611437565b611c1f60208301846113e0565b9392505050565b7f436f6c6c61746572616c206c69717569646174696f6e206661696c6564000000600082015250565b6000611c5c601d83611523565b9150611c6782611c26565b602082019050919050565b60006020820190508181036000830152611c8b81611c4f565b9050919050565b7f4465706f736974206d7573742062652067726561746572207468616e20300000600082015250565b6000611cc8601e83611523565b9150611cd382611c92565b602082019050919050565b60006020820190508181036000830152611cf781611cbb565b9050919050565b7f4e6f20616374697665206c6f616e20666f756e64000000000000000000000000600082015250565b6000611d34601483611523565b9150611d3f82611cfe565b602082019050919050565b60006020820190508181036000830152611d6381611d27565b9050919050565b7f4c6f616e206973206f7665726475650000000000000000000000000000000000600082015250565b6000611da0600f83611523565b9150611dab82611d6a565b602082019050919050565b60006020820190508181036000830152611dcf81611d93565b9050919050565b7f496e73756666696369656e742072657061796d656e7420616d6f756e74000000600082015250565b6000611e0c601d83611523565b9150611e1782611dd6565b602082019050919050565b60006020820190508181036000830152611e3b81611dff565b9050919050565b7f436f6c6c61746572616c2072657475726e206661696c65640000000000000000600082015250565b6000611e78601883611523565b9150611e8382611e42565b602082019050919050565b60006020820190508181036000830152611ea781611e6b565b905091905056fea2646970667358221220577d658841213a32ecff5d104ccf967721ee46e91a8e480527d91ab067e8c67e64736f6c63430008130033",
  "linkReferences": {},
  "deployedLinkReferences": {}
}